:020000040800F2
:1000000090390020990100088D4C00082F3B000812
:10001000894C0008DD120008515300080000000060
:1000200000000000000000000000000001010008C6
:100030007D1C00080000000045010008494E000832
:10004000B3010008B3010008B3010008B3010008C0
:10005000B3010008B3010008B3010008B3010008B0
:10006000B3010008B3010008B3010008B3010008A0
:10007000B3010008B3010008B3010008B301000890
:10008000B3010008B3010008B3010008B301000880
:10009000B3010008B3010008B3010008B301000870
:1000A000B3010008B3010008B3010008B301000860
:1000B000B3010008B3010008B3010008B301000850
:1000C000B3010008B3010008B3010008B301000840
:1000D000B3010008B3010008B3010008B301000830
:1000E000B3010008B3010008B3010008DFF80CD029
:1000F00000F07CFC00480047E95C000890390020D3
:10010000224B19680868B0E8F00F80F30988BFF344
:100110006F8F4FF0000080F311884EF00D0E704786
:100120000000000006480068006880F3088862B696
:1001300061B6BFF34F8FBFF36F8F00DF00BF00BF0B
:1001400008ED00E0EFF30980BFF36F8F0F4B1A68E3
:1001500020E9F00F106008B54FF0BF0080F3118860
:10016000BFF34F8FBFF36F8F06F0D8F94FF0000049
:1001700080F31188BDE8084019680868B0E8F00FFE
:1001800080F30988BFF36F8F704700BF880000209D
:10019000EFF3058070470000064880470648004797
:1001A000FEE7FEE7FEE7FEE7FEE7FEE7FEE7FEE727
:1001B000FEE7FEE7C34E0008ED000008202A04DB3E
:1001C000203A21FA02F00021704721FA02F3D040D0
:1001D000C2F120029140084319467047D2B201E0B3
:1001E00000F8012B491EFBD270470022F6E710B53C
:1001F00013460A4604461946FFF7F0FF204610BD95
:10020000421C10F8011B0029FBD1801A70470246DE
:10021000C9B200E0401C0378002BFBD102E0037858
:100220008B4203D0401E9042F9D200207047F0B4B8
:1002300080EA0102D40F4200B2EB410F02D2024623
:10024000084611464A0042D0C30DDDB2C1F3C75281
:10025000AD1A202D35DAC1F3160141F4000204B1C4
:100260005242C5F1200602FA06F12A411044B3EBCE
:10027000D05F23D0C4B1012DA0EBC35009DCF0BC8A
:100280004FF0004202EAC352DBB200F5000000F07A
:100290000BBB400000F1807000EBC350A0F18070F8
:1002A00040EAD170490009E0490841EAC071A0EB79
:1002B000C35000F50000400800EBC350F0BC00F054
:1002C000EABA6142012202EB4101001BF6E7F0BCF1
:1002D000704781F00041AAE780F00040A7E780EA7C
:1002E000010210B502F00043400022D04A001FD0A6
:1002F000010E01EB1261C0F35600C2F3560240F446
:10030000000042F40002A0FB022000047F39140424
:1003100000D0401C50EA124001D44000491EC2B235
:100320000C0604EBD010401C4008802A02D003E0E9
:10033000002010BD20F00100002900DA0020184341
:1003400010BD30B480EA010202F0004530F00042F6
:1003500021F0004013D090B1C30DD40DC2F31601AB
:10036000C0F31600E41A41F4000140F400027D34A9
:10037000914201D3641C00E04900002C02DA30BC39
:10038000002070474FF400000023914201D3891AE6
:10039000034340084FEA4101F7D151B1914202D1E4
:1003A0004FF0004105E002D24FF0010101E06FF093
:1003B000010103EBC450284430BC00F06CBA2DE9B5
:1003C000FE4F804681EA0300C00F0C46009021F0EA
:1003D000004123F00045B8EB0200A94105D2404698
:1003E000214690461C460B46024623F0004010432F
:1003F00047D0270DC7F30A00C3F30A510290401AF1
:10040000019040286BDAC3F3130040F4801B00987E
:10041000924620B10023D2EB030A63EB0B0B019849
:100420005946C0F14002504600F014FA06460D4607
:1004300050465946019A00F01CFA10EB0800614141
:10044000002487EA115284EAE7731A4340D0009AE5
:1004500062B3019A012A4FEA075215DC001B61EBD7
:1004600002014FF0004202EA0752CDE90042001CAF
:1004700041F5801132462B4600F053FA03B0BDE837
:10048000F08F40462146F9E7001B61EB0201001C9A
:1004900041F5801300185B412018A2F5001747EBC7
:1004A000030140EAD570B6196D4111E06D084FEABD
:1004B000360645EAC0754FEA0752001B61EB0201A0
:1004C000001C41F5801149084FEA300000195141E4
:1004D00032462B4603B0BDE8F04F00F013BA009847
:1004E000012240000023D0EB020263EBE07300988E
:1004F00021464FEAE074B8EB000061EB0401E9E744
:1005000083F000435BE781F0004158E72DE9FE4F9F
:1005100081EA030404F0004421F0004100944FF00C
:10052000000B23F0004350EA01045ED052EA0304BA
:100530005BD0C3F30A54C1F30A552C44A4F2F3343C
:100540000194A0FB0254C1F3130141F48011C3F3E1
:10055000130343F4801301FB024400FB034E840A9F
:10056000970A44EA815447EA8357A4FB0768029537
:100570008D0A05FB07854FEA932C04FB0C542705D5
:10058000029D4FEA065847EA1637B5EB08056EEBB1
:10059000070C870E920E47EA811742EA8312A7FBE7
:1005A0000201B6EB0B0164EB00042B0D43EA0C33A4
:1005B0005E1844EB1C50DA465146E7FB0201C5F3D6
:1005C00013044FEA0B3343EA14534FEA0432019CFD
:1005D00043EA0603A4F10C040294009CCDE900B4A4
:1005E00000F09FF903B0BDE8F08F00200146F9E765
:1005F0002DE9F04D81EA030404F0004B21F00045A1
:1006000014464FF0000A23F0004150EA050220D0C2
:1006100054EA01021DD0C5F30A570246C5F313037D
:10062000C1F31300C1F30A5640F4801543F480135C
:10063000A7EB0608101BD64608F2FD3873EB050041
:1006400002D308F1010801E092185B41B8F1000FF4
:1006500003DA00200146BDE8F08D00204FF4801140
:10066000064684460EE0171B73EB050705D3121BE5
:1006700063EB050306434CEA010C49084FEA3000DE
:1006800092185B4150EA0107EDD152EA030012D003
:1006900082EA040083EA0501084305D0101BAB4140
:1006A00006D20122002306E000224FF0004302E0C0
:1006B0006FF0010253101AEB06004CEB085110EBDF
:1006C0000A0041EB0B01BDE8F04D00F01BB9C10F72
:1006D00080EAE0700844CA079623002100F0E4B8DD
:1006E0000EB5C10F80EAE0700844CA07002140F24D
:1006F00033438DE80E000A460B4600F012F903B0B2
:1007000000BD00F0004220F00040C10DC0F3160013
:1007100040F400007F2901DA00207047962903DCAD
:10072000C1F19601C84001E096398840002AF4D012
:100730004042704770B5C1F30A5201F000450024F1
:10074000C1F3130140F2FF3341F480119A4201DA00
:10075000002070BD40F233439A42A2F2334203DCE0
:100760005242FFF72BFD00E090402C43F1D0404275
:1007700070BD00F0004230F000400AD0C10D01F51C
:100780006071C0F3160042EA0151C20840071143EC
:10079000704700200146704730B5041E71F1000417
:1007A00004DB4FF00044404264EB0101141E73F17E
:1007B000000405DB1C464FF00043524263EB040388
:1007C0008B4208BF824230BD01F0004330B421F0BB
:1007D000004150EA010206D00A0DA2F56072C1F391
:1007E0001301002A02DC30BC00207047440F44EAA9
:1007F000C104C100E01830BC00EBC25000F04BB89F
:10080000002801DBC0F10040002901DBC1F10041FB
:1008100081427047002801DBC0F10040002901DB64
:10082000C1F100418842704730B50B4601460020B7
:100830002022012409E021FA02F59D4205D303FAA2
:1008400002F5491B04FA02F52844151EA2F1010223
:10085000F1DC30BD202A04DB203A00FA02F100204E
:1008600070479140C2F1200320FA03F319439040EE
:100870007047202A06DBCB17203A41FA02F043EA00
:10088000E07306E041FA02F3D040C2F12002914049
:100890000843194670470029A8BF7047401C49000B
:1008A00008BF20F00100704710B4B0FA80FC00FAD5
:1008B0000CF050EA010404BF10BC704749B1CCF100
:1008C000200421FA04F411FA0CF118BF012121438C
:1008D0000843A3EB0C01CB1D4FEA00614FEA102047
:1008E00042BF002010BC704700EBC35010440029E9
:1008F000A4BF10BC7047401C490008BF20F0010095
:1009000010BC704710B5141E73F1000408DA401CC7
:1009100041F1000192185B411A4301D120F001001E
:1009200010BD2DE9F04D92469B4611B1B1FA81F20E
:1009300002E0B0FA80F220329046FFF78BFF0446C7
:100940000F4640EA0A0041EA0B0153465A46084363
:1009500013D0114653EA010019D0C8F140025046A5
:10096000FFF72CFC05460E46504659464246FFF717
:1009700071FF084305D0012004E020463946BDE858
:10098000F08D0020054346EAE0762C4337430A9871
:100990006305E40AA0EB08000022FD0A44EA47547C
:1009A0000A3002D500200146E9E701051019694126
:1009B000DDE9084500196941BDE8F04DA2E770B5D1
:1009C00021F0004303430CD0C1F30A550024D5EBBA
:1009D000040564EB0403D617AD1AB34102DB002013
:1009E000014670BD201841EB025170BD064C074D09
:1009F00006E0E06840F0010394E8070098471034EF
:100A0000AC42F6D3FFF776FBA06B0008C06B000882
:100A1000420005D0C0F3C7525242914201DC00208F
:100A2000704700EBC15070472DE9F04D00231A4686
:100A30001B1A8A4103DB00200146BDE8F08DC1F39B
:100A40000A52C1F3130141F480154FF0000BD10796
:100A500002D100186D41521E0027044640F2FF11DA
:100A6000384601EB620A3E468046024600204FF4BB
:100A70008011FFF7A3FBC2197141BB1846EB0100BF
:100A8000B4EB030C75EB000C04D3E41A65EB000522
:100A900017460E46241908F101006D41804634289E
:100AA000E3DDF91946EB0600091BA84103D24FF01C
:100AB000FF32134601E0002213461BEB070046EB12
:100AC0000A51BDE8F04DFFF71DBF70B58C1810F846
:100AD000015B15F0070301D110F8013B2A1106D183
:100AE00010F8012B03E010F8016B01F8016B5B1E9D
:100AF000F9D12B0705D40023521E0DD401F8013B78
:100B0000FAE710F8013BCB1A921C03E013F8015BE3
:100B100001F8015B521EF9D5A142D8D3002070BD67
:100B20002DE9F0418148007830B101280ED002282B
:100B30007ED003287DD1A6E000207D49C8807D4974
:100B4000C8807D49C8807D49C8809EE07C496FF09F
:100B50006302086A642100F037FC0746FFF7B7FD1F
:100B600005467849B1F90000FFF7B1FD80467648A7
:100B7000016A4046FFF75BFB07467448016A384646
:100B8000FFF7A7FB06462946FFF751FB0446FFF790
:100B9000B8FD00B26649C88069496FF06302086A0F
:100BA000642100F011FC0746FFF791FD05466549F9
:100BB000B1F90000FFF78BFD80466348016A4046AB
:100BC000FFF787FB07466148016A3846FFF781FB5C
:100BD00006462946FFF77DFB0446FFF792FD00B26B
:100BE0005449C88056496FF06302086A642100F0D6
:100BF000EBFB0746FFF76BFD05465249B1F90000D4
:100C0000FFF765FD80465048016A4046FFF70FFB3D
:100C100007464E48016A3846FFF709FB0646294653
:100C2000FFF757FB0446FFF76CFD00B2424901E0B5
:100C300028E029E0C88042496FF06302086A642115
:100C400000F0C2FB0746FFF742FD05463D49B1F9FA
:100C50000000FFF73CFD80463B48016A4046FFF735
:100C600038FB07463948016A3846FFF7E0FA06467E
:100C70002946FFF7DCFA0446FFF743FD00B22F498F
:100C8000C88002E001E000E000BF00BF2849B1F9E0
:100C90000600FFF71CFD044600224FF42F7100F000
:100CA00093FB2349C8802349B1F90600FFF70FFDE4
:100CB000044600224FF42F7100F086FB1D49C880C6
:100CC0001D49B1F90600FFF702FD044600224FF46A
:100CD0002F7100F079FB1849C8801849B1F9060056
:100CE000FFF7F5FC044600224FF42F7100F06CFB77
:100CF0001249C8801348B0F90000322808DA0020F1
:100D00000B49C8800B49C8800B49C8800B49C88073
:100D1000074803F09BFC074803F098FC064803F0E3
:100D200095FC064803F092FCBDE8F0810901002023
:100D3000140200201C020020240200202C020020AB
:100D4000F00100200A01002060010020A80100201D
:100D50002DE9F041324803F0E7F9324AB2F90010C8
:100D60002F4AB2F9000000F0A5FB2D4908802D4A5A
:100D7000B2F902102A4AB2F9020000F09BFB28499E
:100D80004880284AB2F90410254AB2F9040000F05C
:100D900091FB234988800846008822490880204822
:100DA000408848801E48808888801D49B1F9060027
:100DB000FFF796FC064632460B461B4800F023FB25
:100DC0000446FFF7B7FC00B21549C880B1F9080026
:100DD000FFF786FC064632460B461348183000F0F3
:100DE00012FB0446FFF7A6FC01B20D480181014643
:100DF000B1F90A00FFF774FC064632460B460A4872
:100E0000303000F000FB0446FFF794FC01B20448C8
:100E10004181064A064900F075FBBDE8F0810000FB
:100E2000743500203001002010000020A69BC43B38
:100E30008035002010B503F06BFA114803F0E3FB96
:100E4000104803F0E0FB104803F0DDFB0F4803F00F
:100E5000DAFB00200A49C8800A49C8800A49C880CC
:100E60000A49C880064803F0F1FB064803F0EEFB90
:100E7000054803F0EBFB054803F0E8FB10BD00005C
:100E8000140200201C020020240200202C0200205A
:100E90002DE9F0474049B1F90410A1F5FA70FFF7C8
:100EA0001FFC064600223D4BFFF7A2FB0446FFF75E
:100EB0008BFC3B4908613B48406848613A49B1F9BD
:100EC00002104FF4FA6201FB02F0FFF709FC06463C
:100ED0000022364BFFF78CFB0446FFF775FC3449C4
:100EE00048612F4800F064FA2B49B1F90610A1F5CA
:100EF000FA70FFF7F5FB06460022284BFFF778FB58
:100F00000446FFF761FC2B49086126488068486168
:100F10002549B1F900104FF4FA6201FB02F0FFF726
:100F2000DFFB06460022214BFFF762FB0446FFF77A
:100F30004BFC214948611F4800F03AFA1649B1F9C3
:100F40000210A1F5FA70FFF7CBFB06460022134B07
:100F5000FFF74EFB0446FFF737FC184908611148BC
:100F6000006848611049B1F90400FFF7B9FB064673
:100F70000022134BFFF7CAFA044600220B4BFFF77F
:100F800037FB8046FFF720FC0E4948610B4800F014
:100F90000FFABDE8F08700000A0100200000494078
:100FA0003C01002080350020743500200000E04026
:100FB0006001002084010020A8010020CC01002055
:100FC00000409F40F00100201CB51548042100237B
:100FD0008022CDE9001013A1154805F003FB154848
:100FE000032100238022CDE9001013A1154805F04C
:100FF000F9FA1548012100238022CDE9001013A140
:10100000154805F0EFFA1548022100238022CDE9AA
:10101000001013A1154805F0E5FA05F041FA1CBDD2
:1010200014010020706F7765725F7461736B00004C
:101030001D5D000818010020666C696768745F74A4
:1010400061736B00D15B00081C0100206C65645F5C
:101050007461736B00000000155C00082001002023
:10106000636F6D6D5F7461736B000000855B0008DA
:1010700010B52048007830B101280ED002281ED0CB
:10108000032834D12CE000F05BF828B9012019497D
:1010900008700020184908702AE01848407A012892
:1010A00005D10220134908700020144948721448E1
:1010B0000078012802D103200E49087018E00F487B
:1010C000407A012804D10B49087000200B4948726E
:1010D0000B480078012802D103200649087007E078
:1010E000012005F0C3F900200249087000E000BFAC
:1010F00000BF10BD09010020250100200A010020C9
:101100000801002028B900210B4A11700B4A117008
:1011100010E001280ED109490978491C074A1170CD
:10112000114609780A2905DB0121034A11700021C3
:10113000024A1170704700000801002024010020BD
:1011400010B52D48007805284BD2DFE800F00311D8
:10115000273449002948B0F90000B0F5617F06DB6B
:1011600001202549087005F061FB2549086039E038
:101170002248B0F90000B0F5617F0EDA05F056FBA9
:101180001F490968401AB0F57A7F03D302201A4933
:10119000087002E000201849087023E01748B0F9F1
:1011A0000000642806DC03201349087005F03EFBAC
:1011B0001449086016E005F039FB12490968401A25
:1011C000B0F57A7F08D80D48B0F90000642806DD34
:1011D00000200949087002E004200749087001E076
:1011E00000E000BF00BF04480078042801D10020BF
:1011F00010BD0120FCE70000250100200A010020AD
:10120000280100202C01002070B511213148FEF783
:10121000ECFF304803F08CF92E48FEF7F1FF08B9D7
:10122000012070BD2B480078772807D129484078E5
:10123000632803D127488078792801D00120F0E77E
:1012400000240025002004E02249095C0C44411CD4
:10125000C8B20D28F8DB1F48407B00061D49897B7A
:1012600040EA01401B49C97B40EA01201949097C39
:1012700040EA0105AC4201D00120D2E715480079CF
:101280001449C97840EA012000B213490880114886
:1012900080791049497940EA012000B20E4948801E
:1012A0000C48007A0B49C97940EA012000B20A498A
:1012B00088800848807A0749497A40EA012000B2CC
:1012C0000549C8800348C07A08720248007B48720A
:1012D0000020A6E7603500200A01002000BFFEE7DD
:1012E0002DE9F04F89B08246DAE90410FEF7F1FFEC
:1012F000CAF80C00DAF80C10DAF81C00FEF797FFB9
:10130000CAF81C000021DAF81800FFF779FA03D1B7
:10131000DAF80C00CAF81800DAF81810DAF80C003D
:10132000FEF7D7FF83465946DAF80800FEF7D7FFE5
:101330000646FFF71EFA04461B4A1C4BFFF758F9F6
:10134000CDE90401DAF81C10DAF80400FEF7C7FF53
:101350000190FFF70EFA8046134A144BFFF7D6F8B8
:1013600004460D46DAF80C10DAF80000FEF7B7FF75
:101370008046FFF7FEF9064622462B46FFF71FF888
:10138000CDE90201DDE90423FFF719F8CDE90601F3
:10139000FFF71AFACAF82000DAF80C00CAF81800A9
:1013A00009B0BDE8F08F0000FA7E6ABC7493783F04
:1013B00070B505460C462846FFF792FF286A206163
:1013C0002046FFF78DFF70BD2DE9F04104460D4624
:1013D00016462846FFF77BF907462146FFF710FA25
:1013E00002D22846BDE8F0813046FFF770F9074683
:1013F0002146FFF70FFA01D23046F3E72046FFF708
:1014000080F900B2EEE72DE9F04788B08246144635
:101410001D46DAF81010DAF80000FEF708FFCAF8E7
:101420000400DAF81410DAF80400FEF700FF0646AC
:101430003146DAF80400FEF784FFCAF80C00DAF847
:101440000800FFF796F922462B46CDE90001FFF789
:101450005AF8CDE90201DAF80C00FFF78AF90646DE
:10146000DDE90223FFF752F880468946DAF80800E2
:10147000FFF77FF942464B46CDE90401FEF79FFF97
:10148000CDE90601FFF7A0F9CAF808004FF07E5039
:10149000DAF80C10FEF71DFF0646DAF80410FEF726
:1014A0001EFFCAF80000DAF80800FFF762F908B07A
:1014B000BDE8F0872DE9FC5F83460C462046FFF728
:1014C0000FF907464FF033320C4BFFF71FF88146F8
:1014D0008A465846FFF704F907464FF03332084B67
:1014E000FFF714F84A465346CDE90001FEF767FFBF
:1014F0000546FFF71FF900B2BDE8FC9F3333EB3F11
:101500003333C33F07B5A0B04FF07C512298FEF7AC
:10151000E6FE0E90FE4880680690FD480068059043
:101520000699FEF7DCFE0890F948C0680690F84876
:10153000406805900699FEF7D2FE07900899FEF7DD
:10154000C8FE4FF080410990FEF7C9FE1D90F0489B
:10155000C0680690EE48806805900699FEF7BFFEC9
:101560000890EB4840680690E948006805900699A5
:10157000FEF7B5FE07900899FEF759FE4FF080413F
:101580000990FEF7ACFE1E90E14880680590E048A7
:10159000806804900599FEF7A2FE0790DC48406839
:1015A0000590DB48406804900599FEF798FE069088
:1015B0000799FEF73CFE4FF080410890FEF78FFE42
:1015C0004FF07E510990FEF787FE1F902098B0F9EA
:1015D0000A000490FFF77BF806902098B0F90A0003
:1015E0000490FFF774F805900699FEF778FE0890CE
:1015F0002098B0F908000290FFF769F8049020984D
:10160000B0F908000290FFF762F803900499FEF722
:1016100066FE06902098B0F906000290FFF757F892
:1016200004902098B0F906000290FFF750F803905C
:101630000499FEF754FE05900699FEF7F8FD079011
:101640000899FEF7F4FD099003F022FB0F90209813
:10165000B0F906000890FFF73AF809900F99FEF7E5
:101660003EFE1A902098B0F908000890FFF72FF876
:1016700009900F99FEF733FE1B902098B0F90A00ED
:101680000890FFF724F809900F99FEF728FE1C90A8
:101690001E9807901C9806900799FEF720FE099067
:1016A0001F9807901B9806900799FEF718FE089060
:1016B0000999FEF70EFE14901F9807901A9806904D
:1016C0000799FEF70CFE09901D9807901C9806904C
:1016D0000799FEF704FE08900999FEF7FAFD1590A8
:1016E0001D9807901B9806900799FEF7F8FD099042
:1016F0001E9807901A9806900799FEF7F0FD08903B
:101700000999FEF7E6FD1690149808908148016843
:101710000898FEF7E4FD09907F48006801460890AC
:101720000998FEF784FD7C4908601598089079486F
:1017300001680898FEF7D3FD099077484068014694
:1017400008900998FEF773FD734948601698089051
:10175000704801680898FEF7C2FD09906E488068DD
:10176000014608900998FEF762FD6B49886014985D
:101770000146069069480068FEF7B1FD0890209880
:10178000B0F900000590FEF7A2FF069064480168DA
:101790000698FEF7A4FD07900899FEF748FD09900A
:1017A0005D480068014608900998FEF740FD1790D3
:1017B00015980146069059480068FEF790FD08907C
:1017C0002098B0F902000590FEF781FF069054487A
:1017D00001680698FEF783FD07900899FEF727FD3C
:1017E00009904D484068014608900998FEF71FFD92
:1017F000189016980146069048480068FEF76FFD5D
:1018000008902098B0F904000590FEF760FF06905C
:10181000434801680698FEF762FD07900899FEF7B5
:1018200006FD09903C488068014608900998FEF73B
:10183000FEFC1990199806903548C06805900699E5
:10184000FEF74DFD08901898049031488068039089
:101850000499FEF744FD06902D48406880F0004052
:1018600004901798014603900498FEF738FD059000
:101870000699FEF72EFD07900899FEF72AFD0990BC
:101880000E99FEF72CFD1390199806902048806859
:1018900005900699FEF723FD0890189804901C48BF
:1018A000C06803900499FEF71AFD069017980490FB
:1018B0001748006803900499FEF711FD05900699FA
:1018C000FEF707FD07900899FEF7B1FC09900E9905
:1018D000FEF705FD1290199806900D484068059096
:1018E0000699FEF7FCFC08901898049008480068D8
:1018F00003900499FEF7F3FC0690179804900448AF
:10190000C06803900499FEF7EAFC0590069909E087
:1019100078000020740000208C040020700000205B
:1019200060000020FEF783FC07900899FEF7D1FCC9
:1019300009900E99FEF7D3FC119019980690CA48A9
:10194000006805900699FEF7CAFC08901898049064
:10195000C548406803900499FEF7C1FC0690C24850
:10196000806880F000400490179801460390049826
:10197000FEF7B5FC05900699FEF759FC079008990B
:10198000FEF755FC09900E99FEF7A9FC1090B64899
:10199000006809901399FEF74AFCB34908600846AD
:1019A000406809901299FEF742FCAF49486008462A
:1019B000806809901199FEF73AFCAB4988600846A7
:1019C000C06809901099FEF732FCA749C860084624
:1019D000C06806900846C06805900699FEF77FFC2F
:1019E0000890A148806804909F48806803900499FB
:1019F000FEF775FC06909C48406802909A48406843
:101A000001900299FEF76BFC0490974800680290E1
:101A10009548006801900299FEF761FC03900499D3
:101A2000FEF705FC05900699FEF701FC0790089962
:101A3000FEF7FDFB099003F02BF90F908A48006830
:101A400009900F99FEF74BFC8749086008464068EB
:101A500009900F99FEF743FC834948600846806867
:101A600009900F99FEF73BFC7F4988600846C068E3
:101A700009900F99FEF733FC7B49C860084640681F
:101A8000014606904FF08040FEF729FC079076480B
:101A9000C068014606900798FEF721FC099072483D
:101AA0000068014606904FF08040FEF718FC079052
:101AB0006D488068014606900798FEF710FC089074
:101AC0000999FEF706FC0D906748006801460690EC
:101AD0004FF08040FEF703FC0790634840680146E2
:101AE00006900798FEF7FBFB09905F488068014667
:101AF00006904FF08040FEF7F2FB07905A48C0680E
:101B0000014606900798FEF7EAFB08900999FEF750
:101B10008EFB0C9054488068014606904FF0804040
:101B2000FEF7DDFB07905048806801460690079855
:101B3000FEF7D5FB09904C484068014605904FF0F0
:101B40008040FEF7CCFB0690474840680146059070
:101B50000698FEF7C4FB4FF07E510790FEF7BCFBE2
:101B600008900999FEF7B5FB0B902098B0F9040096
:101B70000890FEF7ACFD09903C4801680998FEF713
:101B8000AEFB0A904FF07C510A98FEF743FE09D352
:101B90000A98FEF7EEFD0022354BCDE90801FEF76D
:101BA000FBFD0DD222990A98FEF799FB0990219826
:101BB0000068014608900998FEF739FB21990860F2
:101BC0002C480068FEF7D5FDCDE906010D98FEF71B
:101BD000D0FDCDE9020103F06FFDCDE90401DDE99F
:101BE0000623FEF793FCCDE90801FEF7EDFD2199F0
:101BF0004860DDE90B1003F097FE09901D4801686D
:101C00000998FEF76CFB219988602098B0F90A00CA
:101C10000590FEF75CFD06900B99FEF760FB0890BF
:101C20002098B0F908000390FEF751FD04900C993C
:101C3000FEF755FB06902098B0F906000390FEF7DA
:101C400046FD04900D99FEF74AFB05900699FEF7B4
:101C5000EEFA07900899FEF7EAFA0990FEF789FD77
:101C6000054A03C223B000BD780000205C000020BC
:101C70000000E0BF5800002068000020704772B6E6
:101C800000BFFEE770B5044600F0B0F906462546F1
:101C9000681C10B104480078054400BF00F0A6F9A4
:101CA000801BA842FAD370BD080000202DE9F84738
:101CB0000346002294466EE14FF0010808FA02F450
:101CC000D1F8008008EA0400A0427DD1DFF8DCA250
:101CD000D1F80480A8EB0A09D0453AD014DCB8F159
:101CE000030F50D009DCB8F1000F31D0B8F1010F6B
:101CF0001CD0B8F1020F49D120E0B8F1110F18D073
:101D0000B8F1120F42D11EE0B9F5881F25D006DCCC
:101D1000B9F5803F20D0B9F5801F37D11AE0B9F569
:101D2000001F18D0B9F5041F30D117E0D1F80CC04E
:101D30002DE0D1F80C8008F1040C28E0D1F80C80DB
:101D400008F1080C23E0D1F80C8008F10C0C1EE01F
:101D500000BF00BF00BF00BF00BF00BFD1F80880B8
:101D6000B8F1000F02D14FF0040C0BE0D1F808805D
:101D7000B8F1010F03D14FF0080C1C6102E04FF0E5
:101D8000080C5C6103E04FF0000C00E000BF00BFF6
:101D9000FF2801D8984601E003F104084646FF28D1
:101DA00002D84FEA820803E0A2F108084FEA880847
:101DB0004746D6F800804FF00F0909FA07F928EADC
:101DC00009080CFA07F900E088E048EA0908C6F8B3
:101DD0000080D1F8048008F08058B8F1805F7DD190
:101DE00000BFDFF8CC81D8F8188048F00108DFF890
:101DF000C091C9F81880C846D8F8188008F00108C2
:101E0000CDF8008000BF00BF4FEAB9384FEA920911
:101E100058F829504FEA82784FEA18794FF00F08A6
:101E200008FA09F825EA0805DFF88881434502D158
:101E30004FF0000816E0DFF88081434502D14FF0F3
:101E400001080FE0DFF87481434502D14FF002082A
:101E500008E0DFF86C81434502D14FF0030801E050
:101E60004FF004084FEA82794FEA197908FA09F825
:101E700048EA0505DFF84C814FEA920948F82950F5
:101E8000D1F8048008F48018B8F5801F0AD1DFF873
:101E90003881D8F8008048EA0008DFF82C91C9F8AA
:101EA000008009E0DFF82081D8F8008028EA0008E7
:101EB000DFF81491C9F80080D1F8048008F4001804
:101EC000B8F5001F10D1DFF8008108F10408D8F838
:101ED000008048EA0008DFF8F09000E05AE009F1DD
:101EE0000409C9F800800DE0DFF8DC8008F104087F
:101EF000D8F8008028EA0008DFF8CC9009F104093E
:101F0000C9F80080D1F8048008F40038B8F5003F23
:101F10000ED1DFF8B480A8F10408D8F8008048EAB0
:101F20000008DFF8A490A9F10409C9F800800DE0C9
:101F3000DFF89480A8F10408D8F8008028EA0008A7
:101F4000DFF88490A9F10409C9F80080D1F8048071
:101F500008F48038B8F5803F0ED1DFF86C80A8F126
:101F60000808D8F8008048EA0008DFF85C90A9F17A
:101F70000809C9F800800DE0DFF84C80A8F10808D6
:101F8000D8F8008028EA0008DFF83C90A9F1080999
:101F9000C9F80080521CD1F8008028FA02F8B8F184
:101FA000000F7FF489AEBDE8F88700000000111033
:101FB0000010024000080140000C014000100140E8
:101FC00000140140080001400804014010B5C26837
:101FD00021EA020302EA010443EA0443036110BD5B
:101FE0000AB1016101E00B04036170470148006818
:101FF000704700000000002070B504460CB90120B5
:1020000070BD94F83D0028B9002084F83C002046BB
:1020100000F046FB242084F83D002068006820F092
:102020000100216808602068006840F400402168D1
:1020300008602068006820F400402168086000F013
:10204000F7FC05465C496068884206D85B488542D3
:1020500001D2012007E0002005E05948854201D265
:10206000012000E00020012800D1C9E75548B5FB58
:10207000F0F62068406820F03F0030432168486057
:102080004D496068884201D8701C07E04FF4967093
:1020900070434FF47A71B0FBF1F0401C2168096A7B
:1020A00021F03F0108432168086243496068884283
:1020B00014D8681E61684900B0FBF1F0401CC0F301
:1020C0000B00042801D204203DE0681E616849002D
:1020D000B0FBF1F0401CC0F30B0034E0A06838B94D
:1020E000681E616801EB4101B0FBF1F0401C0AE0A1
:1020F000681E616801EBC10202EB0111B0FBF1F057
:10210000401C40F48040C0F30B0008B901201AE0E5
:10211000A06848B9681E616801EB4101B0FBF1F0AD
:10212000401CC0F30B000CE0681E616801EBC102AB
:1021300002EB0111B0FBF1F0401CC0F30B0040F4C6
:10214000804040F400402168C9694CF6FF72914319
:1021500008432168C861D4E9070108432168096878
:1021600021F0C001084321680860D4E90310084346
:102170002168896848F2FF329143084321688860EA
:10218000D4E9050108432168C96821F0FF0108432B
:102190002168C8602068006840F00100216808607C
:1021A00000202064202084F83D000020206384F873
:1021B0003E0000BF24E70000A086010080841E00CE
:1021C00000093D0040420F002DE9FE4F04460F4636
:1021D00090469946DDE90CAB0E9E00200290FFF779
:1021E00005FF054694F83D00202872D119230122ED
:1021F000CE492046009501F00EFE10B10220BDE848
:10220000FE8F00BF94F83C00012801D10220F6E7C0
:10221000012084F83C0000BF2068006800F0010045
:1022200028B92068006840F0010021680860206833
:10223000006820F4006021680860222084F83D00D6
:10224000402084F83E0000202064C4F824A0A4F8B4
:102250002AB0608D2085B648E0624B46424639463A
:102260002046CDE9006501F083FC08B10120C6E7F6
:10227000208D88B900BF002001902068406901903E
:1022800020688069019000BF00BF2068006840F4AA
:102290000070216808604BE0208D01281AD1206869
:1022A000006820F480602168086072B600BF0020DA
:1022B000019020684069019020688069019000BF0A
:1022C00000BF2068006840F400702168086062B6B2
:1022D0002EE029E1208D022819D12068006840F401
:1022E00000602168086072B600BF0020019020687D
:1022F0004069019020688069019000BF00BF20689C
:10230000006820F480602168086062B610E02068F0
:10231000006840F480602168086000BF00200190E0
:1023200020684069019020688069019000BF00BF6B
:10233000EBE0208D03287DD8208D012815D12A4679
:102340003146204601F043FE08B1012057E72068DE
:102350000069616A0870606A401C6062208D401EDE
:102360002085608D401E6085CFE0208D02282CD115
:10237000334600226F492046009501F04CFD08B11C
:1023800001203CE772B62068006840F400702168C4
:10239000086020680069616A0870606A401C6062B9
:1023A000208D401E2085608D401E608562B62068AD
:1023B0000069616A0870606A401C6062208D401E7E
:1023C0002085608D401E60859FE03346002259497C
:1023D0002046009501F01FFD08B101200FE720689D
:1023E000006820F480602168086072B62068006987
:1023F000616A0870606A401C6062208D401E208502
:10240000608D401E60854C4800681921B0FBF1F0DA
:102410004FF47A71B0FBF1F0C0EBC00000EB80002C
:10242000029000BF0298401E02900298A8B90020B6
:10243000206300E039E0202084F83D00002084F88B
:102440003E00206C40F02000206462B600BF0020F7
:1024500084F83C0000BF0120D1E620684069C0F349
:1024600080000028DED02068006840F400702168F9
:10247000086020680069616A0870606A401C6062D8
:10248000208D401E2085608D401E608562B62068CC
:102490000069616A0870606A401C6062208D401E9D
:1024A0002085608D401E60852FE02A4631462046FB
:1024B00001F08DFD08B10120A1E620680069616A84
:1024C0000870606A401C6062208D401E2085608D0F
:1024D000401E608520684069C0F38000A8B1208D4F
:1024E000032805D12068006820F480602168086016
:1024F00020680069616A0870606A401C6062208D13
:10250000401E2085608D401E6085208D00287FF450
:1025100010AF202084F83D00002084F83E0000BF6A
:1025200084F83C0000BF6AE6022068E60200100062
:102530000000FFFF040001000C0000202DE9FC5FFB
:1025400004460F4690469946DDE90CAB0E9EFFF718
:102550004DFD054694F83D0020287DD11923012228
:102560004D492046009501F056FC10B10220BDE80F
:10257000FC9F00BF94F83C00012801D10220F6E73F
:10258000012084F83C0000BF2068006800F00100D2
:1025900028B92068006840F00100216808602068C0
:1025A000006820F4006021680860212084F83D0064
:1025B000402084F83E0000202064C4F824A0A4F841
:1025C0002AB0608D20853548E0624B464246394648
:1025D0002046CDE9006501F07BFB08B10120C6E78C
:1025E00031E02A463146204601F036FD50B1206CDC
:1025F000042805D12068006840F400702168086054
:102600000120B4E7606A007821680861606A401CB4
:102610006062208D401E2085608D401E6085206890
:102620004069C0F3800070B1208D60B1606A0078AD
:1026300021680861606A401C6062208D401E208510
:10264000608D401E6085208D0028CAD12A46314603
:10265000204601F0ADFB00E01CE050B1206C0428E6
:1026600005D12068006840F40070216808600120EE
:102670007DE72068006840F4007021680860202031
:1026800084F83D00002084F83E0000BF84F83C0040
:1026900000BF6CE702206AE7020010000000FFFFA5
:1026A00010B586B004460020029003900490059077
:1026B00015492068884225D100BF1448806940F040
:1026C0000800124988610846806900F008000190FE
:1026D00000BF00BFC020029012200390032005908D
:1026E00002A90B48FFF7E2FA00BF0848C06940F4AE
:1026F00000100649C8610846C06900F40010019046
:1027000000BF00BF06B010BD0054004000100240E2
:10271000000C014003480068034909780844014956
:1027200008607047000000200800002010B508482D
:10273000006840F0100006490860032000F098F897
:102740000F2000F007F800F02BF8002010BD00006B
:102750000020024070B504460E4800784FF47A71AC
:10276000B1FBF0F00C490968B1FBF0F5284600F028
:10277000AFFD08B1012070BD102C07D20022214608
:10278000501E00F037F80548046001E00120F2E730
:102790000020F0E7080000200C00002004000020CA
:1027A00008B500BF1148806940F001000F498861F9
:1027B0000846806900F00100009000BF00BF00BF24
:1027C0000846C06940F08050C8610846C06900F002
:1027D0008050009000BF00BF00BF0549486820F04E
:1027E000E06040F00070486000BF08BD001002408B
:1027F000000001402DE9F05F80460D461646002797
:1028000002F0E0FD074639462A46334601F007004C
:10281000C0F1070ABAF1040F02D94FF0040A01E02F
:10282000C0F1070AD14600F1040ABAF1070F02D23B
:102830004FF0000A01E0A0F1030AD4464FF0010A6C
:102840000AFA09FAAAF1010A0AEA020A0AFA0CFAD1
:102850004FF0010B0BFA0CFBABF1010B0BEA030B76
:102860004AEA0B042146404602F0B4FDBDE8F09F61
:1028700000BF00F00702064B19684FF6FF0319402E
:10288000044B0B4343EA0221014B196000BF704720
:102890000CED00E00000FA0570B504460D460CB9D9
:1028A000012070BD5A48006800F00700A8420ED20F
:1028B0005748006820F0070028435549086008463B
:1028C000006800F00700A84201D00120E9E7207865
:1028D00000F0020002281DD1207800F00400042836
:1028E00005D14C48406840F4E0604A49486020788F
:1028F00000F00800082805D14648406840F46050C0
:10290000444948604348406820F0F000A16808430B
:1029100040494860207800F0010078B360680128E1
:1029200006D13C48006800F4003090B90120B8E7B7
:102930006068022806D13748006800F0007040B98E
:102940000120AEE73348006800F0020008B901201A
:10295000A7E73048406820F00300616808432D492C
:102960004860FFF743FB064609E0FFF73FFB801B8B
:1029700041F28831884202D9032092E707E02548D6
:10298000406800F00C006168B0EB810FEDD1204889
:10299000006800F00700A8420ED91D48006820F02A
:1029A000070028431A4908600846006800F007003D
:1029B000A84201D0012074E7207800F00400042828
:1029C00007D11448406820F4E060E16808431149E9
:1029D0004860207800F00800082808D10D484068B9
:1029E00020F46050216940EAC1000A49486000F0C3
:1029F0003FF808494968C1F30311074A515CC840D0
:102A00000649086006480068FFF7A4FE002048E772
:102A10000020024000100240366B00080C0000202D
:102A20000400002001480068704700000C000020EE
:102A300000B5FFF7F7FF04494968C1F30221034AD3
:102A4000515CC84000BD000000100240466B000809
:102A500000B5FFF7E7FF04494968C1F3C221034A03
:102A6000515CC84000BD000000100240466B0008E9
:102A700070B500210022002400230020134D696856
:102A800001F00C05F5B1042D02D0082D19D101E09B
:102A90000F4819E00F4DC1F38346AB5D01F480355B
:102AA00055B10A4D6D68C5F340450B4E725D084D3A
:102AB0005D43B5FBF2F402E0084D03FB05F420464C
:102AC00002E000BF024800BF00BF70BD001002401E
:102AD00000127A00246B0008346B000800093D00E6
:102AE000F8B504460CB90120F8BD207800F00100CB
:102AF000002878D0F848406800F00C0004280CD07A
:102B0000F548406800F00C00082811D1F2484068F0
:102B100000F48030B0F5803F0AD1EF48006800F43F
:102B2000003000285FD0606800285CD10120DBE71E
:102B300000BF6068B0F5803F06D1E748006840F408
:102B40008030E549086028E0606858B9E2480068CC
:102B500020F48030E04908600846006820F48020B6
:102B600008601AE06068B0F5A02F0BD1DA48006861
:102B700040F48020D84908600846006840F480305E
:102B800008600AE0D448006820F48030D249086028
:102B90000846006820F48020086000BF606888B1A3
:102BA000FFF724FA054606E0FFF720FA401B6428E9
:102BB00001D9032098E7C848006800F400300028D5
:102BC000F2D010E0FFF712FA054606E0FFF70EFA22
:102BD000401B642801D9032086E7BF48006800F441
:102BE00000300028F2D1207800F00200022857D1EE
:102BF000B948406800F00C0050B1B748406800F098
:102C00000C00082818D1B448406800F4803098B906
:102C1000B148006800F0020020B12069012801D00D
:102C2000012061E7AC48006820F0F800616940EAE3
:102C3000C100A949086033E02069E8B10120A74933
:102C40000860FFF7D3F9054606E0FFF7CFF9401B10
:102C5000022801D9032047E79F48006800F00200DE
:102C60000028F2D09C48006820F0F800616940EA32
:102C7000C1009949086013E0002098490860FFF7F7
:102C8000B5F9054606E0FFF7B1F9401B022801D966
:102C9000032029E79048006800F002000028F2D1E4
:102CA000207800F0080008282DD1A069B8B10120D3
:102CB0008B490860FFF79AF9054606E0FFF796F999
:102CC000401B022801D903200EE78348406A00F028
:102CD00002000028F2D0012002F002F813E00020E8
:102CE0007F490860FFF782F9054606E0FFF77EF9A5
:102CF000401B022801D90320F6E67748406A00F01D
:102D000002000028F2D1207800F00400042873D1DA
:102D100000277148C06900F0805070B900BF6E484C
:102D2000C06940F080506C49C8610846C06900F035
:102D30008050009000BF00BF01276A48006800F47F
:102D40008070B0B96748006840F4807065490860D9
:102D5000FFF74CF9054606E0FFF748F9401B6428E9
:102D600001D90320C0E65F48006800F480700028A5
:102D7000F2D000BFE068012806D15748006A40F051
:102D800001005549086227E0E06858B95248006AD6
:102D900020F00100504908620846006A20F0040053
:102DA000086219E0E06805280BD14B48006A40F042
:102DB0000400494908620846006A40F001000862C0
:102DC0000AE04548006A20F00100434908620846CD
:102DD000006A20F00400086200BFE068A0B1FFF7BD
:102DE00005F9054609E0FFF701F9401B41F288317A
:102DF000884202D9032077E622E03748006A00F0D3
:102E000002000028EFD012E0FFF7F0F8054608E0D6
:102E1000FFF7ECF8401B41F28831884201D90320CA
:102E200062E62D48006A00F002000028F0D1012F70
:102E300005D12948C06920F080502749C86100BFEA
:102E4000E069C8B32448406800F00C00082860D04E
:102E5000E069022848D1002020490866FFF7C6F83B
:102E6000054606E0FFF7C2F8401B022801D90320FF
:102E70003AE61948006800F000700028F2D1206A94
:102E8000B0F5803F07D11448406820F40030A168B5
:102E9000084311494860D4E9080108430E494968CC
:102EA00021F4741108430C49486001200B4908665D
:102EB000FFF79CF8054607E03DE0FFF797F8401B59
:102EC000022801D903200FE60348006800F00070D3
:102ED0000028F2D02FE00000001002400000424223
:102EE0008004424200700040002014490866FFF749
:102EF0007DF8054606E0FFF779F8401B022801D966
:102F00000320F1E50E48006800F000700028F2D1BF
:102F100011E0E069012800D1E6E50948466806F4B9
:102F20008031206A814204D106F47011606A8142C6
:102F300001D00120D8E50020D6E500000000424283
:102F40000010024010B504460CB9012010BD606AA3
:102F500038B96068B0F5827F00D105E00021E161F9
:102F600002E00021216161610021A16294F8510019
:102F700028B9002084F85000204600F043F80220D1
:102F800084F851002068006820F040002168086043
:102F9000A08800F48270218901F404410843A189CA
:102FA00001F400610843217C01F002010843217D06
:102FB00001F001010843218B01F400710843217FD6
:102FC00001F0380108432021095D01F08001084328
:102FD000218D01F400510843216808600421A06993
:102FE00001EA1040216848602068C06920F4006050
:102FF0002168C86100206065012084F8510000202C
:10300000A4E7000010B586B00446002002900390AB
:10301000049005901949206888422DD100BF1848B6
:10302000806940F48050164988610846806900F440
:103030008050019000BF00BF00BF0846806940F08B
:10304000040088610846806900F00400019000BF18
:1030500000BFA0200290022003900320059002A947
:103060000848FEF723FE40200290002003900490C1
:1030700002A90448FEF71AFE06B010BD0030014058
:1030800000100240000801402DE9FE4F04460F46A3
:1030900090461D460C9E01200190FEF7A7FF814639
:1030A00094F851B060680290AA46BBF1010F0BD0B2
:1030B0000298B0F5827F04D1A06810B9BBF1040F6B
:1030C00002D00220BDE8FE8F1FB1B8F1000F00D082
:1030D0000DB90120F6E700BF94F85000012801D196
:1030E0000220EFE7012084F8500000BF94F851005F
:1030F000042802D0052084F8510000206065C4F83F
:103100003880E587A5872763E586A5862064606407
:103110002068006800F04000402805D02068006862
:1031200040F0400021680860E068B0F5006F52D1BF
:10313000606810B1BAF1010F09D1206B00882168D5
:10314000C860206B801C2063E08E401EE0863BE060
:103150002068806800F00200022810D1E08E70B173
:10316000019801280BD1206B00882168C860206B72
:10317000801C2063E08E401EE086002001902068C5
:10318000806800F0010068B1E08F58B12068C06825
:10319000A16B0880A06B801CA063E08F401EE087BD
:1031A00001200190FEF722FFA0EB0900B0420BD3F3
:1031B000701C48B1012084F8510000BF002084F841
:1031C000500000BF03207DE7E08E0028C0D1E08FD3
:1031D0000028BDD152E0606810B1BAF1010F09D1E9
:1031E000206B007821680873206B401C2063E08E00
:1031F000401EE0863CE02068806800F00200022863
:1032000010D1E08E70B1019801280BD1206B0078AD
:1032100021680873206B401C2063E08E401EE0860E
:10322000002001902068806800F0010068B1E08F04
:1032300058B12068C068A16B0870A06B401CA063E7
:10324000E08F401EE08701200190FEF7CFFEA0EB4B
:103250000900B04201D3701C00B94EB9012084F8B6
:10326000510000BF002084F8500000BF032029E770
:10327000E08E0028BFD1E08F0028BCD14A463146FD
:10328000204601F041FD40B12020606500BF0020D4
:1032900084F8500000BF012014E7A06850B900BFB7
:1032A000002000902068C06800902068806800902E
:1032B00000BF00BF012084F8510000BF002084F847
:1032C000500000BF606D08B10120FBE60020F9E668
:1032D00070B504462546681EB0F1807F01D30120F9
:1032E0000FE0681E4FF0E02148610F214FF0FF30E2
:1032F00002F070F800204FF0E0218861072008619B
:10330000002070BD10B50346002200BF93F83C00BA
:10331000012801D1022010BD012083F83C0000BF2C
:1033200022F0FF00CC6840EA040222F440708C686E
:1033300040EA040222F480604C6840EA040222F46D
:1033400000600C6840EA040222F480500C6940EAF4
:10335000040222F400504C6940EA040222F4804046
:10336000CC6940EA04021868426400BF002083F878
:103370003C0000BF00BFCEE730B502460B4600BFA1
:1033800092F83C00012801D1022030BD012082F8D2
:103390003C0000BF022082F83D00106844681068BD
:1033A000816824F070041868044310684460104D6C
:1033B0001068A8420BD01068B0F1804F07D00D4DB7
:1033C0001068A84203D00C4D1068A84205D121F026
:1033D00080015868014310688160012082F83D0037
:1033E00000BF002082F83C0000BF00BFCDE7000016
:1033F000002C0140000400400008004010B50446C5
:103400000CB9012010BD94F83D0028B9002084F8C3
:103410003C00204600F026F8022084F83D00211DE3
:10342000206801F04FFD012084F8460000BF84F8B9
:103430003E0001213F20015540200155412001550A
:1034400000BF00BF012084F8420043200155442002
:1034500001554520015500BF012084F83D000020A2
:10346000D0E7000008B5244A016891420DD100BFA1
:103470002249896941F40061204A916111468969B4
:1034800001F40061009100BF35E00168B1F1804FA7
:103490000DD100BF1949C96941F00101174AD16135
:1034A0001146C96901F00101009100BF23E0144AEF
:1034B000016891420DD100BF1049C96941F0020174
:1034C0000E4AD1611146C96901F00201009100BFA5
:1034D00011E00C4A016891420DD100BF0749C9694A
:1034E00041F00401054AD1611146C96901F00401A6
:1034F000009100BF00BF08BD002C01400010024039
:1035000000040040000800402DE9F04104460D464B
:10351000002700BF94F83C00012802D10220BDE83A
:10352000F081012084F83C0000BF022084F83D00B7
:103530002068866826F0770626F47F462068866035
:103540002868502833D00CDC202850D004DC002818
:103550004BD0102851D149E0302849D040284CD1D7
:1035600039E060282DD0702807D0B0F5805F03D0F7
:10357000B0F5005F41D10DE041E0D5E902136A6882
:10358000206801F0F2FC2068866846F07706206823
:10359000866034E0D5E902136A68206801F0E5FC32
:1035A0002068806840F480402168886027E0EA68ED
:1035B0006968206801F0AAFD5021206801F0E0FC54
:1035C0001DE0EA686968206801F0B3FD60212068A9
:1035D00001F0D6FC13E0EA686968206801F096FD06
:1035E0004021206801F0CCFC09E000BF00BF00BF13
:1035F0002968206801F0C4FC01E0012700BF00BF7A
:10360000012084F83D0000BF002084F83C0000BF8A
:10361000384684E710B586B0044600200290039037
:10362000049005903C492068884217D100BF3B4870
:10363000806940F00400394988610846806900F0DB
:103640000400019000BF00BF081502900220039003
:10365000059002A93248FEF729FB5BE02068B0F133
:10366000804F16D100BF2D48806940F004002B49DF
:1036700088610846806900F00400019000BF00BF27
:10368000022002900390059002A92548FEF70EFB48
:1036900040E024492068884221D100BF1F4880694A
:1036A00040F008001D4988610846806900F0080064
:1036B000019000BF00BF10200290022003900590EF
:1036C00002A91948FEF7F2FA00BF1849486820F429
:1036D000406040F0E06040F4006048601AE0144947
:1036E0002068884216D100BF0C48806940F008006D
:1036F0000A4988610846806900F00800019000BF0F
:1037000000BF4815029002200390059002A90648C8
:10371000FEF7CCFA06B010BD002C014000100240AC
:103720000008014000040040000C0140000001407E
:10373000000800402DE9F04104460D4616460027DA
:1037400000BF94F83C00012802D10220BDE8F081BE
:10375000012084F83C0000BF36B1042E1BD0082E97
:1037600031D00C2E5ED145E02946206801F012FCD4
:103770002068806940F008002168886120688069BD
:1037800020F0040021688861206880692969084365
:103790002168886148E02946206801F02BFC2068F8
:1037A000806940F40060216888612068806920F4A5
:1037B00080602168886120688069296940EA012069
:1037C0002168886130E02946206801F047FC2068C4
:1037D000C06940F008002168C8612068C06920F015
:1037E00004002168C8612068C0692969084321680C
:1037F000C86119E02946206801F064FC2068C069AE
:1038000040F400602168C8612068C06920F48060CD
:103810002168C8612068C069296940EA01202168DF
:10382000C86101E0012700BF00BF00BF002084F88D
:103830003C0000BF384689E710B504460CB90120AA
:1038400010BD94F83D0028B9002084F83C002046C3
:1038500000F025F8022084F83D00211D206801F0C9
:1038600031FB012084F8460000BF84F83E000121AE
:103870003F200155402001554120015500BF00BFA8
:10388000012084F842004320015544200155452081
:10389000015500BF012084F83D000020D0E77047AB
:1038A00070B504460D4615B994F83E000BE0042DA2
:1038B00002D13F20005D06E0082D02D14020005DCE
:1038C00001E04120005D012801D0012070BD1DB93B
:1038D000022084F83E000EE0042D03D102213F2097
:1038E000015508E0082D03D102214020015502E0D6
:1038F00002214120015501222946206801F024FBC4
:1039000019492068884201D1012000E0002028B137
:103910002068406C40F400402168486412492068E7
:1039200088420BD02068B0F1804F07D00F49206843
:10393000884203D00E49206888420CD120688068F4
:1039400000F00706062E0CD02068006840F0010049
:103950002168086005E02068006840F001002168E7
:1039600008600020B2E70000002C01400004004085
:103970000008004010B504460CB9012010BDA06934
:1039800000B100E000BF94F8410028B9002084F89D
:103990004000204600F02AF8242084F841002068E6
:1039A000C06820F400502168C860204601F00CFC7B
:1039B0002068006920F4904021680861206840690F
:1039C00020F02A00216848612068C06840F4005057
:1039D0002168C86000206064202084F8410084F8D9
:1039E00042000020606300BFC8E7000010B586B049
:1039F0000446002002900390049005901949206825
:103A000088422DD100BF1848C06940F400301649E3
:103A1000C8610846C06900F40030019000BF00BFD3
:103A200000BF0846806940F004008861084680694C
:103A300000F00400019000BF00BF042002900220AB
:103A400003900320059002A90848FEF72FF90820EB
:103A5000029000200390049002A90448FEF726F982
:103A600006B010BD004400400010024000080140B4
:103A70002DE9F84F04460E46174699464FF0000AC6
:103A800094F84100202850D106B117B90120BDE8B3
:103A9000F88F00206064212084F84100FEF7A6FA28
:103AA0008246A784E784A068B0F5805F04D12069CE
:103AB00010B90025B04602E035464FF000081EE080
:103AC0005346002280212046CDF8009001F0FAFBF9
:103AD00020B1202084F841000320D8E745B9B8F888
:103AE0000000C0F308002168486008F1020803E004
:103AF0002878216848606D1CE08C401EE084E08CD2
:103B00000028DDD15346002240212046CDF8009008
:103B100001F0D8FB20B1202084F841000320B6E753
:103B2000202084F841000020B1E70220AFE700BF69
:103B3000FEE7014608684069C0F38020B0B16FF429
:103B400080600A68506100200863202081F83D00F1
:103B5000002081F83E00086C40F00400086400BFBB
:103B6000002081F83C0000BF012070470020FCE7E6
:103B70002DE9F84304460F4615469946DDE90886C7
:103B80002068006840F48060216808602068006850
:103B900040F4807021680860434600224FF0011114
:103BA0002046009600F037F960B12068006800F404
:103BB0008070B0F5807F02D14FF400702064032044
:103BC000BDE8F88307F0FE002168086133464246ED
:103BD0003E49204600F07EF908B10120F0E700BF21
:103BE0000020009020684069009020688069009063
:103BF00000BF00BF32464146204600F02DFA50B1CA
:103C0000206C042805D12068006840F40070216809
:103C100008600120D4E7B9F1010F03D1E8B22168AF
:103C2000086117E0C5F30720216808613246414664
:103C3000204600F011FA50B1206C042805D120680C
:103C4000006840F40070216808600120B8E7E8B21D
:103C50002168086132464146204600F0FDF950B126
:103C6000206C042805D12068006840F400702168A9
:103C700008600120A4E72068006840F48070216893
:103C80000860434600224FF001112046009600F0E4
:103C9000C2F858B12068006800F48070B0F5807FE9
:103CA00002D14FF400702064032089E7F8B240F09D
:103CB000010021680861334642460449204600F06D
:103CC00009F908B101207BE7002079E70200010033
:103CD0002DE9F8430446884615469946DDE908670C
:103CE0002068006840F48070216808603346002234
:103CF0004FF001112046009700F08DF860B1206868
:103D0000006800F48070B0F5807F02D14FF400703D
:103D100020640320BDE8F88308F0FE0021680861F4
:103D20003B4632462149204600F0D4F808B1012034
:103D3000F0E700BF002000902068406900902068F4
:103D40008069009000BF00BF3A463146204600F02F
:103D500083F950B1206C042805D12068006840F434
:103D60000070216808600120D4E7B9F1010F03D188
:103D7000E8B22168086117E0C5F3072021680861EF
:103D80003A463146204600F067F950B1206C0428CD
:103D900005D12068006840F40070216808600120A7
:103DA000B8E7E8B2216808610020B3E7020001002B
:103DB00070B504460D46164625E02046FFF7B9FECD
:103DC00008B1012070BD681CE8B1FEF70FF9801B37
:103DD000A84200D8BDB920684069C0F3800090B9FE
:103DE00000202063202084F83D00002084F83E005D
:103DF000206C40F02000206400BF002084F83C00CC
:103E000000BF0120DEE720684069C0F38000002881
:103E1000D3D00020D6E72DE9F04104460D461746E1
:103E20001E46DDF8188038E0701CA8B3FEF7DEF8F7
:103E3000A0EB0800B04200D876BBC5F307400128CC
:103E40000AD120684069A9B20840A9B2884201D1CC
:103E500001200BE0002009E020688069A9B2084039
:103E6000A9B2884201D1012000E00020B84214D15B
:103E700000202063202084F83D00002084F83E00CC
:103E8000206C40F02000206400BF002084F83C003B
:103E900000BF0120BDE8F081FFE7C5F3074001281E
:103EA0000AD120684069A9B20840A9B2884201D16C
:103EB00001200BE0002009E020688069A9B20840D9
:103EC000A9B2884201D1012000E00020B842ABD065
:103ED0000020DFE72DE9F04104460D4616461F4657
:103EE00058E020684069C0F38020E8B1206800688D
:103EF00040F40070216808606FF4806021684861B8
:103F000000202063202084F83D00002084F83E003B
:103F1000206C40F00400206400BF002084F83C00C6
:103F200000BF0120BDE8F081701C90B3FEF75EF881
:103F3000C01BB04200D866BBC5F3074001280AD1B8
:103F400020684069A9B20840A9B2884201D1012085
:103F50000BE0002009E020688069A9B20840A9B2FE
:103F6000884201D1012000E0002090B900202063A8
:103F7000202084F83D00002084F83E00206C40F0B2
:103F80002000206400BF002084F83C0000BF012016
:103F9000C8E7FFE7C5F3074001280AD12068406958
:103FA000A9B20840A9B2884201D101200BE000204B
:103FB00009E020688069A9B20840A9B2884201D10D
:103FC000012000E0002000288BD00020AAE770B577
:103FD00004460D46164637E020684069C0F30010DD
:103FE000A0B16FF0100021684861002020632020FC
:103FF00084F83D00002084F83E00206C206400BF5F
:10400000002084F83C0000BF012070BDFDF7EEFFEA
:10401000801BA84200D8BDB920684069C0F3801059
:1040200090B900202063202084F83D00002084F80F
:104030003E00206C40F02000206400BF002084F887
:104040003C0000BF0120E0E720684069C0F3801019
:104050000028C1D00020D8E770B504460D461646AA
:1040600025E02046FFF765FD08B1012070BD681C02
:10407000E8B1FDF7BBFF801BA84200D8BDB920689E
:104080004069C0F3C01090B900202063202084F85C
:104090003D00002084F83E00206C40F020002064A9
:1040A00000BF002084F83C0000BF0120DEE720684C
:1040B0004069C0F3C0100028D3D00020D6E700002C
:1040C00010B5002204210648FDF78AFF642002F0A3
:1040D000CDF9012204210248FDF782FF10BD000046
:1040E000000C014010B5002204210E48FDF778FFB6
:1040F000642002F0BBF9012204210A48FDF770FF99
:10410000C82002F0B3F9002204210648FDF768FF39
:10411000642002F0ABF9012204210248FDF760FFA0
:1041200010BD0000000C014010B50446204600F010
:1041300037FBA01D00F0EEFA10BD00003EB50446AE
:104140000D464FF47A7001210B462246CDE900510D
:104150000290D1210148FEF737F83EBD78020020D9
:1041600013B584B004464FF47A70012105AA0B46BA
:10417000CDE9002102902246D0210248FEF7DEF967
:1041800006B010BD7802002030B587B00020059041
:10419000069003900490002403A800F0BBFA34E0DA
:1041A00005A800F0B7FABDF91430BDF90C505A1B40
:1041B000002A01DB134600E05342B3F5967F1CDA78
:1041C000BDF91630BDF90E50591B002901DB0B4615
:1041D00000E04B42B3F5967F0FDABDF91830BDF918
:1041E0001050581B002801DB034600E04342B3F5A2
:1041F000967F02DA601CC4B200E00024DDE905010C
:10420000CDE90301062002F031F9642CC8DB00205F
:10421000009001900290002533E06846FFF784FF8C
:10422000BDF906002E49096808442D490860BDF90A
:1042300008002C49096808442A490860BDF90A00A9
:10424000A0F5804028490968084427490860BDF95D
:10425000000026490968084424490860BDF90200A5
:1042600023490968084422490860BDF9040021492E
:10427000096808441F490860062002F0F7F8681C26
:10428000C5B2642DC9DB16480068642190FBF1F0CB
:104290001949086013480068642190FBF1F0174940
:1042A000086011480068642190FBF1F0144908602F
:1042B0000E480068642190FBF1F0124908600C4838
:1042C0000068642190FBF1F00F490860094800681C
:1042D000642190FBF1F00D49086007B030BD00008B
:1042E000580200205C0200206002002064020020CE
:1042F000680200206C0200204002002044020020DE
:10430000480200204C0200205002002054020020ED
:1043100008B580216B20FFF723FF0020009003E009
:1043200069466B20FFF70AFF9DF800004028F7D18F
:1043300000216B20FFF714FF18211B20FFF710FF4F
:1043400000211C20FFF70CFF00213820FFF708FF99
:1043500000216A20FFF704FF01211920FFF700FF69
:1043600001211A20FFF7FCFE01216B20FFF7F8FE68
:1043700000216C20FFF7F4FEFFF706FF08BD0000E8
:1043800010B505220E49102000F098F805220D49BD
:10439000302000F0E7F805220949102000F08EF8DF
:1043A000002109E00648405C064A525C904201D078
:1043B000012010BD481CC1B20529F3DB0020F8E73D
:1043C000390200203402002010B5C820FDF75AFC45
:1043D00002E00A20FDF756FCFFF7D2FF0128F8D0D3
:1043E00000F03AF85C210EA0FBF711FF28B15C2128
:1043F0000BA0FBF70CFF401C0BE02F2108A0FBF7E4
:1044000006FF28B12F2106A0FBF701FF401C00E0AA
:1044100003A00446ED22214607A000F09BFF10BD3B
:10442000696E746572666163655C496E745F534959
:10443000323452312E6300005B25733A25645D20CF
:1044400053493234523120496E6974205375636385
:10445000657373210D0A000010B500224FF48071BE
:104460001448FDF7BDFD052213492A2000F07AF813
:104470000121212000F098F80121222000F094F879
:104480002821252000F090F81121312000F08CF82F
:104490000621262000F088F80F21202000F084F863
:1044A000FF21272000F080F8012211020148FDF7CA
:1044B00097FD10BD00080140340200202DE9F041B5
:1044C00007460D461646002210210C48FDF788FDD0
:1044D000384600F03BFC8046002405E0002000F058
:1044E00035FC2855601CC4B2B442F7DB0122102110
:1044F0000248FDF775FD4046BDE8F0810008014027
:1045000070B50446002210210848FDF769FD2046D9
:1045100000F01CFC002000F019FC054601221021CF
:104520000248FDF75DFD284670BD0000000801400F
:1045300070B504460720FFF7E3FF0546294627200C
:1045400000F032F805F0400050B111222146612000
:10455000FFF7B4FFFF21E22000F026F8002070BD35
:104560000120FCE72DE9F04107460C4615460022E4
:1045700010210C48FDF734FD384600F0E7FB80467B
:10458000002605E014F8010B00F0E0FB701CC6B239
:10459000AE42F7DB012210210248FDF721FD404623
:1045A000BDE8F0810008014070B505460C460022C8
:1045B00010210848FDF714FD284600F0C7FB064609
:1045C000204600F0C3FB012210210248FDF708FD40
:1045D000304670BD0008014010B50446A18820682F
:1045E000FDF7F4FC10BD10B50446A1880122206837
:1045F000FDF7F6FC10BD10B50446A1880022206826
:10460000FDF7EEFC10BD10B50446A08820B90020CF
:1046100021680968486313E0A088042804D10020B9
:104620002168096888630BE0A088082804D100206D
:1046300021680968C86303E00020216809680864EC
:10464000A1882068FFF72CF910BD000070B5044662
:10465000B4F90600B0F57A7F1DDD5C211EA0FBF7E2
:10466000D6FD28B15C211CA0FBF7D1FD401C0BE05E
:104670002F2119A0FBF7CBFD28B12F2116A0FBF7A6
:10468000C6FD401C00E014A005460B22294618A0D8
:1046900000F060FE70BDA08828B9B4F9060021685A
:1046A0000968486316E0A088042805D1B4F906001B
:1046B0002168096888630DE0A088082805D1B4F94D
:1046C000060021680968C86304E0B4F9060021689F
:1046D0000968086400BFDDE7696E7465726661632E
:1046E000655C496E745F6D6F746F722E63000000BD
:1046F0005B25733A25645D206D6F746F7220737053
:1047000065656420697320746F6F20686967680D40
:104710000A0000001CB5044600200190009001A989
:104720003B20FFF70BFD69463C20FFF707FD9DF896
:1047300000009DF8041040EA012016490988401A3B
:1047400000B2208001A93D20FFF7F8FC69463E2019
:10475000FFF7F4FC9DF800009DF8041040EA0120EA
:104760000D490988401A00B2608001A93F20FFF777
:10477000E5FC69464020FFF7E1FC9DF800009DF84C
:10478000041040EA012005490988401A00B2A080BF
:104790001CBD00004002002044020020480200200E
:1047A0001CB5044600200190009001A94320FFF7AA
:1047B000C5FC69464420FFF7C1FC9DF800009DF848
:1047C000041040EA012016490988401A00B22080EE
:1047D00001A94520FFF7B2FC69464620FFF7AEFC71
:1047E0009DF800009DF8041040EA01200D49098859
:1047F000401A00B2608001A94720FFF79FFC69467C
:104800004820FFF79BFC9DF800009DF8041040EA4B
:10481000012005490988401A00B2A0801CBD000093
:104820004C020020500200205402002000B585B048
:104830000020019002900390049000BF30488069EE
:1048400040F010002E4988610846806900F0100091
:10485000009000BF00BF00BF0846806940F0200004
:1048600088610846806900F02000009000BF00BF0A
:1048700000BF0846806940F00400886108468069EE
:1048800000F00400009000BF00BF00BF0846806930
:1048900040F0080088610846806900F00800009038
:1048A00000BF00BF012241F610011648FDF798FB3A
:1048B00001224CF204011448FDF792FB00224FF450
:1048C00080711048FDF78CFB41F61010019001201B
:1048D0000290002003900220049001A90948FDF7EE
:1048E000E5F94CF2040001900120029000200390B1
:1048F0000220049001A90448FDF7D8F905B000BDD5
:104900000010024000080140000C014010B50B48A7
:104910000B4908600B484860002109488160C1606C
:104920004FF480410161002141618161C1610162F7
:10493000FDF762FB08B1FDF7A2F910BD005400407D
:1049400078020020801A060010B50E480E49086053
:104950004FF48270486000210B488160C1600161A2
:1049600041614FF4007181611021C1610021016238
:10497000416281620A21C162FEF7E4FA08B1FDF7E3
:104980007EF910BD00300140CC02002000B595B08A
:10499000002011901290139014900F9010901C21F1
:1049A00008A8FBF722FC20216846FBF71EFC2B48D9
:1049B0002B4908600320486000212948816040F2AB
:1049C000E731C1600021016141618161FEF716FD9F
:1049D00008B1FDF754F94FF48050119011A9204807
:1049E000FEF792FD08B1FDF74AF91D48FEF724FFD6
:1049F00008B1FDF744F900200F9010900FA9184856
:104A0000FEF7BAFC08B1FDF73AF960200890C8201B
:104A1000099000200A900B900C900D900E900822A7
:104A200008A90F48FEF786FE08B1FDF728F9002017
:104A3000009001900290039004904FF40050059074
:104A40000020079069460648FEF75CFC08B1FDF7B8
:104A500016F90348FEF7DEFD15B000BD002C01403D
:104A60002403002000B58DB0002009900A900B901F
:104A70000C90079008901C216846FBF7B6FB4FF09E
:104A80008040204908600320486000211D48816063
:104A900040F2E731C160002101618161FEF7AEFCA7
:104AA00008B1FDF7ECF84FF48050099009A91548BA
:104AB000FEF72AFD08B1FDF7E2F81248FEF7BCFE4A
:104AC00008B1FDF7DCF800200790089007A90D4811
:104AD000FEF752FC08B1FDF7D2F860200090C82024
:104AE0000190002002900490042269460548FEF7D8
:104AF00021FE08B1FDF7C3F80248FEF78BFD0DB0AB
:104B000000BD00006C03002000B58DB000200990AE
:104B10000A900B900C90079008901C216846FBF7B8
:104B200064FB2048204908600320486000211E489B
:104B3000816040F2E731C160002101618161FEF7CF
:104B40005DFC08B1FDF79BF84FF48050099009A96E
:104B50001548FEF7D9FC08B1FDF791F81248FEF7A9
:104B60006BFE08B1FDF78BF800200790089007A9AD
:104B70000D48FEF701FC08B1FDF781F860200090B8
:104B8000C820019000200290049000226946064847
:104B9000FEF7D0FD08B1FDF772F80348FEF73AFDC5
:104BA0000DB000BD00040040B403002000B58DB07E
:104BB000002009900A900B900C90079008901C21FF
:104BC0006846FBF712FB2048204908600320486034
:104BD00000211E48816040F2E731C160002101617F
:104BE0008161FEF70BFC08B1FDF749F84FF48050E6
:104BF000099009A91548FEF787FC08B1FDF73FF8B1
:104C00001248FEF719FE08B1FDF739F800200790A9
:104C1000089007A90D48FEF7AFFB08B1FDF72FF884
:104C200060200090C82001900020029004900C2287
:104C300069460648FEF77EFD08B1FDF720F80348F7
:104C4000FEF7E8FC0DB000BD00080040FC030020AA
:104C500010B50B480B4908604FF4E1304860002163
:104C600008488160C16001610C21416100218161BE
:104C7000C161FEF77FFE08B1FDF701F810BD00002D
:104C8000004400404404002000BFFEE700BFFEE7F0
:104C90002DE9F05F04464FF07F594FF07C512046DC
:104CA000FBF71DFB824625462E460C48A0EB660608
:104CB000354629465046FBF712FB83462946FBF74B
:104CC0000EFB80464946FBF707FB07462946FBF7E4
:104CD00006FB05462846BDE8F09F0000DF59375F18
:104CE00008B508490968C9084FF47A72B1FBF2F1B6
:104CF0004143009100BF00BF00994A1E0092002965
:104D0000F9D108BD0C000020F8B504460E46154642
:104D10003346012202212046009500F029F828B1EF
:104D2000606D40F0200060650320F8BD334600222E
:104D300080212046009500F01BF828B1606D40F0FE
:104D4000200060650320F0E70020EEE701B582B0A7
:104D5000002001904FF47A70012301AA02A900906B
:104D60000248FEF791F99DF804000EBDCC02002028
:104D70002DE9F84F04460D4690461E46DDF8289072
:104D8000FDF734F9A0EB0900371AFDF72FF9824639
:104D90002C480068C0F3CB307843009045E0701C8D
:104DA000002842D0FDF722F9A0EB0A00B84200D259
:104DB000A7BB2068406820F0E00021684860606878
:104DC000B0F5827F0DD1A068B0F5004F03D0A06888
:104DD000B0F5806F05D12068006820F040002168A0
:104DE0000860A06AB0F5005F0DD100BF20680068C0
:104DF00020F40050216808602068006840F40050EA
:104E00002168086000BF012084F8510000BF002025
:104E100084F8500000BF0320BDE8F88FFFE700983A
:104E200000B900270098401E009020688068284044
:104E3000A84201D1012000E000204045AFD1002070
:104E4000EAE700000C00002010B501F0DFFC0128AB
:104E500001D001F0ADFBFDF75DFC10BD00B58FB0DA
:104E6000282105A8FBF7C1F914216846FBF7BDF915
:104E70000120059000040690002007900120099071
:104E800002200C90C1030D914FF4E0110E9105A882
:104E9000FDF726FE08B1FCF7F2FE0F20009002207D
:104EA0000190002002904FF4806003900020049055
:104EB00002216846FDF7F0FC08B1FCF7E0FE0FB0F8
:104EC00000BD704710B502681C4B984208D0B0F185
:104ED000804F05D01A4B984202D01A4B984203D10A
:104EE00022F070024B681A43144B984208D0B0F17C
:104EF000804F05D0124B984202D0124B984203D1FA
:104F000022F44072CB681A4322F080034C6943EAD2
:104F1000040202608B68C3620B688362074B98428D
:104F200001D10B69036301234361036903F00103AA
:104F30001BB1036923F00103036110BD002C014084
:104F4000000400400008004030B501F01F050124B6
:104F500004FA05F3046A9C430462046A01F01F0525
:104F600002FA05F52C43046230BD30B50C46816869
:104F700021F47F4142EA032525432943816030BD66
:104F80000A46816821F0700142F0070319438160ED
:104F90007047000030B5026A056A25F00105056218
:104FA0004368846924F0700424F003040D682C43E2
:104FB00022F002028D682A430D4DA84206D100BF9F
:104FC00022F00802CD682A4322F00402084DA842CC
:104FD00007D123F4807323F400734D692B438D694B
:104FE0002B43436084614D684563026230BD00001D
:104FF000002C014030B5026A056A25F010050562F3
:105000004368846924F4E04424F440740D6844EA5D
:10501000052422F020028D6842EA05120E4DA842B6
:1050200007D100BF22F08002CD6842EA051222F0CB
:105030004002094DA84209D123F4806323F40063A0
:105040004D6943EA85038D6943EA850343608461C2
:105050004D688563026230BD002C014030B5026AA4
:10506000056A25F4807505624368C46924F07004FC
:1050700024F003040D682C4322F400728D6842EA88
:1050800005220F4DA84207D100BF22F40062CD686F
:1050900042EA052222F48062094DA84209D123F494
:1050A000805323F400534D6943EA05138D6943EAA5
:1050B00005134360C4614D68C563026230BD0000E2
:1050C000002C014030B5036A056A25F4805505625D
:1050D0004468C26922F4E04222F440720D6842EA58
:1050E000052223F400538D6843EA0533064DA84298
:1050F00004D124F480444D6944EA85144460C261BB
:105100004D680564036230BD002C014030B50B468C
:105110001446026A056A25F001050562816921F0DD
:10512000F00141EA041122F00A021A43816102628D
:1051300030BD30B50B461446026A056A25F01005ED
:105140000562816921F4704141EA043122F0A00234
:1051500042EA03128161026230BD00BF00BF0268F3
:105160000C3252E8002F22F4907102680C3242E8AF
:105170000013002BF3D100BF00BF00BF0268143240
:1051800052E8002F22F001010268143242E80013B5
:10519000002BF3D100BF016B01290ED100BF00BF6E
:1051A00002680C3252E8002F22F0100102680C3223
:1051B00042E80013002BF3D100BF202180F84210F9
:1051C000002101637047000070B504462168096939
:1051D00021F44051E2681143226811612269A168FB
:1051E0001143626941EA02052168C96841F20C6213
:1051F000914329432268D1602168496921F44071B3
:10520000A2691143226851612D4A2168914202D15D
:10521000FDF71EFC01E0FDF70BFC00EBC00101EB0C
:10522000001162689200B1FBF2F100EBC00202EBE8
:10523000001263689B00B2FBF3F26423B2FBF3F24B
:1052400002EBC20303EB0212A1EB8201322202EB5A
:1052500001116422B1FBF2F101F0F00100EBC00298
:1052600002EB001263689B00B2FBF3F26423B2FB13
:10527000F3F201EB021200EBC00101EB00116368D5
:105280009B00B1FBF3F100EBC00303EB0013666876
:10529000B600B3FBF6F36426B3FBF6F303EBC306E9
:1052A00006EB0313A1EB8301322303EB011164230B
:1052B000B1FBF3F101F00F0111442268916070BD60
:1052C000003801402DE9F84304460D46174698463C
:1052D000089E31E0701C70B3FCF788FEA0EB08005C
:1052E000B04200D816B90320BDE8F8832068C06832
:1052F00000F00400F8B1802D1ED0402D1CD0206895
:105300000068C0F3C000B0B100BF0020009020686A
:105310000068009020684068009000BF00BF2046F1
:10532000FFF71BFF0820606400BF002084F84000E6
:1053300000BF0120D8E7FFE7206800682840A842A6
:1053400001D1012000E00020B842C3D00020CBE70B
:1053500000BFFEE70FB4054B10B503A9044A02983D
:1053600000F0CEF810BC5DF814FB0000F95B0008FB
:1053700070020020490050EAC12018BF04204A0DE5
:1053800018BF40F0010040F2FF72B2EB515F08BF5E
:1053900040F00200012808BF0520704741000802C4
:1053A00018BF04200A0E18BF40F001004FF07F42E2
:1053B00032EA010108BF40F00200012808BF0520C1
:1053C0007047000002480068C0F3022070470000E8
:1053D0000CED00E010B5002804DB0A07130E054AA7
:1053E000135406E00A07140E034A00F00F031B1FB4
:1053F000D45410BD00E400E018ED00E02DE9F041C8
:105400004F1E00EBC7010446D1E9000115461E46B8
:1054100037F006020DD02A463346FBF777F87F1E99
:1054200004EBC703D3E90023FAF7C9FF37F00602FC
:10543000F1D1022F25D0042F13D0062F18BFBDE8BD
:10544000F0812A463346FBF761F8D4E90A23FAF7DC
:10545000B6FF2A463346FBF759F8D4E90823FAF792
:10546000AEFF2A463346FBF751F8D4E90623FAF794
:10547000A6FF2A463346FBF749F8D4E90423FAF796
:105480009EFF2A463346FBF741F8D4E90223FAF798
:1054900096FF2A463346FBF739F8D4E90023BDE8E6
:1054A000F041FAF78CBF0122FBF789BA00221346BC
:1054B00010461146FBF79CB8024A00201107FBF783
:1054C0007EBA000001FDFFFFFAF7B1BE6FF05E018A
:1054D0000807FBF79DBA02E008C8121F08C1002A9E
:1054E000FAD170477047002001E001C1121F002A65
:1054F000FBD170470149086070470000740200202A
:105500002DE9FF4F8BB09A460F460546002606E070
:1055100025280BD052460D9990476D1C761C287893
:105520000028F5D10FB03046BDE8F08F0024A0462A
:105530000122604900E0044315F8013F203B02FAD4
:1055400003F00842F7D128782E2817D115F8010F5B
:1055500044F004042A280ED06FF02F022878A0F11E
:10556000300109290AD808EB880102EB410100EB60
:1055700001086D1CF2E757F8048B6D1C2878692828
:105580003ED006DC0028CDD063280BD0642804D19F
:1055900036E0732810D075284BD052460D999047AD
:1055A000761C85E017F8040B8DF8000000208DF8BC
:1055B0000100E946012003E057F8049B4FF0FF305B
:1055C00061074FF0000401D40AE0641C44450DDA81
:1055D0008442FADB19F804100029F6D106E0641CB5
:1055E0008442FCDB19F804100029F8D1264404E0B9
:1055F00019F8010B52460D999047641EF8D257E0F6
:1056000001CF4FF00A0B002802DA40422D2102E0C0
:10561000210504D52B218DF82410012103E0E10799
:1056200005D02021F7E70DF1200908910CE00021B9
:10563000F9E701CF4FF00A0BF9E75946FBF7F4F809
:1056400001F1300209F8012D0028F6D1ADEB090077
:1056500000F1200B600701D44FF00108D84502DDAE
:10566000A8EB0B0000E000208046002406E009A81B
:105670005246005D0D999047641C761C0898844240
:10568000F5DB04E0302052460D999047761CB8F1C6
:105690000001A8F10108F5DC05E019F8010B5246FC
:1056A0000D999047761CBBF10001ABF1010BF4DCC6
:1056B0006D1C34E7092801002DE9F04D8D4F21F0D4
:1056C000004A86B005460C46BA452ADBAAEB07001D
:1056D00028430AD08848824501DC1AD1CDB106B0F2
:1056E0002846BDE8F04DFFF7DEBE844A844B2846CD
:1056F000FAF70CFF07460E46824A834B284621469E
:10570000FAF704FF06B03A463346BDE8F04DFAF723
:1057100056BE0120FFF7EEFE06B0BDE8F04DFFF7E4
:10572000C5BE7A48824542DABAF1795F0BDA28467B
:10573000FFF720FE042808BFFFF7BEFE284606B08C
:105740002146BDE8F08D2A460B461046FAF7DEFEEC
:10575000834602466E480E460B4606217844FFF704
:105760004DFE5A463346FAF7D1FE804669488A46CE
:105770005A46334604217844FFF740FE5A463346E2
:10578000FAF7C4FE00223B46FAF719FE02460B4622
:1057900040465146FAF72CFF2A462346FAF7B6FE52
:1057A00006B02A462346BDE8F04DFAF708BE284663
:1057B00024F0004100223D463B46FAF7A4FE4FF09C
:1057C000FF32FBF7FCF80646024653480F460B46ED
:1057D00006217844FFF712FE32463B46FAF796FE62
:1057E000CDE900014D4832463B4604217844FFF79D
:1057F00005FE32463B46FAF789FE00222B46FAF7B1
:10580000DEFD834602913046394600F033FD804686
:1058100043480D46504517DCDDE900015A46029B1E
:10582000FAF7E6FE42462B46FAF770FE42462B4652
:10583000FAF7C5FD0122FBF7C2F8304A304BFAF700
:105840005FFE304A304B4CE04FF0000A52460B46A8
:105850004046FAF7B4FDCDE9031052462B461046F8
:105860001946FAF753FE32463B46FAF74CFEDDE99D
:105870000332FAF7BDFE06460F46DDE900015A463F
:10588000029BFAF7B5FE8346009101223046394665
:10589000FBF795F8194A1A4BFAF735FE06460F46FC
:1058A000012240462946FBF78AF85A46009BFAF740
:1058B0002DFE32463B46FAF723FE06460F460122EE
:1058C00050462946FBF77BF80E4DDFF858802A46F4
:1058D0004346FAF718FE32463B46FAF714FE2A46CC
:1058E0004346FAF710FE002CD8BF81F0004106B005
:1058F000BDE8F08D0000F03F0000F07F075C14333E
:1059000026A6913C182D4454FB21F93F0000E03FAE
:10591000F0130000061400007A130000901300003A
:105920003333EF3FFB21E93F2DE9F0474FF0684269
:1059300002EB40030C460546B3F1654F3CBF02EB5A
:105940004102B2F1654F7CD2C0F3C753C1F3C752D5
:105950009A1A1B2A06DD10F0004F14BF76487748CC
:10596000BDE8F08712F11A0F17DA11F0004F06D0D8
:1059700010F0004F0CBF72487248BDE8F087214616
:105980002846FAF7DEFC0446FFF708FD042808BFA6
:10599000FFF79CFD2046BDE8F0874200B2EB410FC7
:1059A00025D910F0004F19BF674F684E684F694EF8
:1059B000224685F0004415460A4680F00041104614
:1059C0000A1A5200B2F1807F40D248406249DFF8A3
:1059D0008CA110F0004F18D04FF03F483846FAF72E
:1059E00078FC074651463046FAF773FC17E011F091
:1059F000004F04BF00263746E2D010F0004F19BF19
:105A0000574F584E584F594EDAE74FF07C583846AA
:105A1000FAF70DFC074651463046FAF708FC0646F1
:105A200041462846FAF75BFC2146FAF700FC82461D
:105A300021464046FAF753FC2946FAF74DFC5146F9
:105A400000E037E0FAF77DFC044604E021462846F2
:105A5000FAF777FC04460146FAF741FC80464449D0
:105A6000FAF73DFC4349FAF7E2FB4146FAF737FC07
:105A70004149FAF7DCFB4146FAF731FC3F49FAF7B6
:105A8000D6FB4146FAF72BFC3D49FAF7D0FB054619
:105A900041462046FAF723FC2946FAF720FC314616
:105AA000FAF7C5FB2146FAF7C2FB3946BDE8F047D5
:105AB000FAF7BDBB4FF07F42B2EB400F28BFB2EB0D
:105AC000410F03D2BDE8F047FFF7FEBC40EA0103F7
:105AD0005B0008BF44F0FF410AD0B2EB400F08BFA3
